{
  "transactions": [
    {
      "hash": "0x4c08c2af2932e3db54cce01de7913c6b45673b665eb901e5723cf01f97dd8a8b",
      "transactionType": "CALL",
      "contractName": null,
      "contractAddress": "0xcf17b4834223d7e54b92f8e43229c1e82faf7226",
      "function": "setPeer(uint32,bytes32)",
      "arguments": [
        "30184",
        "0x0000000000000000000000005234634f1089c5af95662e88feb8a5e0fc647ed4"
      ],
      "transaction": {
        "from": "0xdb5af497a73620d881561edb508012a5f84e9ba2",
        "to": "0xcf17b4834223d7e54b92f8e43229c1e82faf7226",
        "gas": "0x10fec",
        "value": "0x0",
        "input": "0x3400288b00000000000000000000000000000000000000000000000000000000000075e80000000000000000000000005234634f1089c5af95662e88feb8a5e0fc647ed4",
        "nonce": "0x18",
        "chainId": "0xa4b1"
      },
      "additionalContracts": [],
      "isFixedGasLimit": false
    },
    {
      "hash": "0x97f8a75fb8a7884d551ee24fb57c0dd99935e5f23a339de6721fa6a1b8671847",
      "transactionType": "CALL",
      "contractName": null,
      "contractAddress": "0xcf17b4834223d7e54b92f8e43229c1e82faf7226",
      "function": "setBridgeConfig((uint32,address))",
      "arguments": [
        "(30184, 0x5234634f1089C5AF95662E88FeB8a5E0Fc647ed4)"
      ],
      "transaction": {
        "from": "0xdb5af497a73620d881561edb508012a5f84e9ba2",
        "to": "0xcf17b4834223d7e54b92f8e43229c1e82faf7226",
        "gas": "0x1121e",
        "value": "0x0",
        "input": "0x90919c2e00000000000000000000000000000000000000000000000000000000000075e80000000000000000000000005234634f1089c5af95662e88feb8a5e0fc647ed4",
        "nonce": "0x19",
        "chainId": "0xa4b1"
      },
      "additionalContracts": [],
      "isFixedGasLimit": false
    },
    {
      "hash": "0x9cb85cf37c4a0bceecae3482405542e8f12eaf71fbb1da78fcd49d99f0a8abdf",
      "transactionType": "CALL",
      "contractName": null,
      "contractAddress": "0xcf17b4834223d7e54b92f8e43229c1e82faf7226",
      "function": "setLzReceiveCost(uint128)",
      "arguments": [
        "1000000"
      ],
      "transaction": {
        "from": "0xdb5af497a73620d881561edb508012a5f84e9ba2",
        "to": "0xcf17b4834223d7e54b92f8e43229c1e82faf7226",
        "gas": "0x105ef",
        "value": "0x0",
        "input": "0x8ff6d47700000000000000000000000000000000000000000000000000000000000f4240",
        "nonce": "0x1a",
        "chainId": "0xa4b1"
      },
      "additionalContracts": [],
      "isFixedGasLimit": false
    },
    {
      "hash": "0x5ca09b94d29de2b7dcaaa770556afbeb1cb74b963739190bff5ad7d6bb181d29",
      "transactionType": "CALL",
      "contractName": null,
      "contractAddress": "0xcf17b4834223d7e54b92f8e43229c1e82faf7226",
      "function": "setGasThresholds(uint256,uint256)",
      "arguments": [
        "10000000000000000",
        "5000000000000000"
      ],
      "transaction": {
        "from": "0xdb5af497a73620d881561edb508012a5f84e9ba2",
        "to": "0xcf17b4834223d7e54b92f8e43229c1e82faf7226",
        "gas": "0xcedb",
        "value": "0x0",
        "input": "0x5a1377c0000000000000000000000000000000000000000000000000002386f26fc100000000000000000000000000000000000000000000000000000011c37937e08000",
        "nonce": "0x1b",
        "chainId": "0xa4b1"
      },
      "additionalContracts": [],
      "isFixedGasLimit": false
    }
  ],
  "receipts": [
    {
      "status": "0x1",
      "cumulativeGasUsed": "0x3b1b5",
      "logs": [
        {
          "address": "0xcf17b4834223d7e54b92f8e43229c1e82faf7226",
          "topics": [
            "0x238399d427b947898edb290f5ff0f9109849b1c3ba196a42e35f00c50a54b98b"
          ],
          "data": "0x00000000000000000000000000000000000000000000000000000000000075e80000000000000000000000005234634f1089c5af95662e88feb8a5e0fc647ed4",
          "blockHash": "0xaf1a78c28ec164a26b832f8a4aafd2380b8269756a0f32c7eb16c494b02022bd",
          "blockNumber": "0x15e52368",
          "transactionHash": "0x4c08c2af2932e3db54cce01de7913c6b45673b665eb901e5723cf01f97dd8a8b",
          "transactionIndex": "0x3",
          "logIndex": "0x5",
          "removed": false
        }
      ],
      "logsBloom": "0x00000000000000000000000000000000000000000000000000000000000000000000000000000800000000000000000000000000000000000800000000000000000000000000000000000000000000000000000000000000000000000000000000000000000000000000000000000000000002000000000001000000000000000000000000000000000000000000000000000000000000000000000000000000000000000000000000000000000000000000000000000000000002000000000000000000000000000000000000000000000000000000000000040000000000000000000000000000000000000000000000000000000000000000000000000000",
      "type": "0x2",
      "transactionHash": "0x4c08c2af2932e3db54cce01de7913c6b45673b665eb901e5723cf01f97dd8a8b",
      "transactionIndex": "0x3",
      "blockHash": "0xaf1a78c28ec164a26b832f8a4aafd2380b8269756a0f32c7eb16c494b02022bd",
      "blockNumber": "0x15e52368",
      "gasUsed": "0xc87b",
      "effectiveGasPrice": "0x14b92d0",
      "from": "0xdb5af497a73620d881561edb508012a5f84e9ba2",
      "to": "0xcf17b4834223d7e54b92f8e43229c1e82faf7226",
      "contractAddress": null,
      "gasUsedForL1": "0xe11",
      "l1BlockNumber": "0x160c359",
      "timeboosted": false
    },
    {
      "status": "0x1",
      "cumulativeGasUsed": "0x3357f",
      "logs": [
        {
          "address": "0xcf17b4834223d7e54b92f8e43229c1e82faf7226",
          "topics": [
            "0x667c4919e9f81a90720a09575224afc1e5c12c569c86afa746138907a029cd0d"
          ],
          "data": "0x00000000000000000000000000000000000000000000000000000000000075e80000000000000000000000005234634f1089c5af95662e88feb8a5e0fc647ed4",
          "blockHash": "0x04321dcef17d44cf9e964ed6ea6cf88b5aea65ae10fbbff25b52ea1887697137",
          "blockNumber": "0x15e52375",
          "transactionHash": "0x97f8a75fb8a7884d551ee24fb57c0dd99935e5f23a339de6721fa6a1b8671847",
          "transactionIndex": "0x4",
          "logIndex": "0x3",
          "removed": false
        }
      ],
      "logsBloom": "0x00000000000000000000000000000000000000000000000000000000000000000000000000000800000000000000000000000000000000000000000000000000000000000000000000000000000000000000000000000000000000000000000000000000000000000000000000000000000002000000000001000000000000000000000000000000000000000000000000000000000000000000000000000000000000000000000000000000000000000000000000000000000000000000000000000000000000000000000000000004000000000000000000000000000000000000000010000000000000000000000000000000000000000000004000000000",
      "type": "0x2",
      "transactionHash": "0x97f8a75fb8a7884d551ee24fb57c0dd99935e5f23a339de6721fa6a1b8671847",
      "transactionIndex": "0x4",
      "blockHash": "0x04321dcef17d44cf9e964ed6ea6cf88b5aea65ae10fbbff25b52ea1887697137",
      "blockNumber": "0x15e52375",
      "gasUsed": "0xca26",
      "effectiveGasPrice": "0x1490290",
      "from": "0xdb5af497a73620d881561edb508012a5f84e9ba2",
      "to": "0xcf17b4834223d7e54b92f8e43229c1e82faf7226",
      "contractAddress": null,
      "gasUsedForL1": "0xe2d",
      "l1BlockNumber": "0x160c359",
      "timeboosted": false
    },
    {
      "status": "0x1",
      "cumulativeGasUsed": "0x8a358",
      "logs": [
        {
          "address": "0xcf17b4834223d7e54b92f8e43229c1e82faf7226",
          "topics": [
            "0x68c77771c713eb95ad51d8439730c7476d2957e71c0868ad8c567354a37ec122"
          ],
          "data": "0x00000000000000000000000000000000000000000000000000000000000f4240",
          "blockHash": "0xb347c36b57077bf42e5f42ed26581dbfe5aeb453b864f7b9d2feaa3ae0feba70",
          "blockNumber": "0x15e52391",
          "transactionHash": "0x9cb85cf37c4a0bceecae3482405542e8f12eaf71fbb1da78fcd49d99f0a8abdf",
          "transactionIndex": "0x4",
          "logIndex": "0x13",
          "removed": false
        }
      ],
      "logsBloom": "0x00000000008000000000000200000000000000000000000000000000000000000000000000000800000000000000000000000000000000000000000000000000000000000000000000000000000000000000000000000000000000000000000000000000000000000000000000000000000002000000000001000000000000000000000000000000000000000000000000000000000000000000000000000000000000000000000000000000000000000000000000000000000000000000000000000000000000000000000000000000000000000000000000000001000000000000000000000000000000000000000000000000000000000000000000000000",
      "type": "0x2",
      "transactionHash": "0x9cb85cf37c4a0bceecae3482405542e8f12eaf71fbb1da78fcd49d99f0a8abdf",
      "transactionIndex": "0x4",
      "blockHash": "0xb347c36b57077bf42e5f42ed26581dbfe5aeb453b864f7b9d2feaa3ae0feba70",
      "blockNumber": "0x15e52391",
      "gasUsed": "0xc2ec",
      "effectiveGasPrice": "0x14a9cb8",
      "from": "0xdb5af497a73620d881561edb508012a5f84e9ba2",
      "to": "0xcf17b4834223d7e54b92f8e43229c1e82faf7226",
      "contractAddress": null,
      "gasUsedForL1": "0xb89",
      "l1BlockNumber": "0x160c359",
      "timeboosted": false
    },
    {
      "status": "0x1",
      "cumulativeGasUsed": "0x9848",
      "logs": [
        {
          "address": "0xcf17b4834223d7e54b92f8e43229c1e82faf7226",
          "topics": [
            "0x98a5dcfe5d371f4a9a0e6d72aa7025644bfcbd134ffca8f85ae421c83f152f04"
          ],
          "data": "0x000000000000000000000000000000000000000000000000002386f26fc100000000000000000000000000000000000000000000000000000011c37937e08000",
          "blockHash": "0xc515a6de7f2364b3a29f9409b8d5f5ec50348966f62e183af0d9402c8fa83d1a",
          "blockNumber": "0x15e5239e",
          "transactionHash": "0x5ca09b94d29de2b7dcaaa770556afbeb1cb74b963739190bff5ad7d6bb181d29",
          "transactionIndex": "0x1",
          "logIndex": "0x0",
          "removed": false
        }
      ],
      "logsBloom": "0x00000000000000000000000000000000000000000000000000000020000000000000000000000800000000000000000000000000000000000000000000000000000000000000000000000000000000000000000000000000000000000000000000000000000000000000000000000000000002000000000001000000000000000008000020000000000000000000000000000000000000000000000000000000000000000000000000000000000000000000000000000000000000000000000000000000000000000000000000000000000000000000000000000000000000000000000000000000000000000000000000000000000000000000000000000000",
      "type": "0x2",
      "transactionHash": "0x5ca09b94d29de2b7dcaaa770556afbeb1cb74b963739190bff5ad7d6bb181d29",
      "transactionIndex": "0x1",
      "blockHash": "0xc515a6de7f2364b3a29f9409b8d5f5ec50348966f62e183af0d9402c8fa83d1a",
      "blockNumber": "0x15e5239e",
      "gasUsed": "0x9848",
      "effectiveGasPrice": "0x142b930",
      "from": "0xdb5af497a73620d881561edb508012a5f84e9ba2",
      "to": "0xcf17b4834223d7e54b92f8e43229c1e82faf7226",
      "contractAddress": null,
      "gasUsedForL1": "0xe60",
      "l1BlockNumber": "0x160c35a",
      "timeboosted": false
    }
  ],
  "libraries": [],
  "pending": [],
  "returns": {},
  "timestamp": 1754925878,
  "chain": 42161,
  "commit": "ca09115f"
}