{
  "transactions": [
    {
      "hash": "0xcc926bcbdc9d2e1858251808ad2b0a56ed6527ee437cf7645fabe91a9265c588",
      "transactionType": "CALL",
      "contractName": "MarketLayerZeroBridge",
      "contractAddress": "0xcf17b4834223d7e54b92f8e43229c1e82faf7226",
      "function": "setPeer(uint32,bytes32)",
      "arguments": [
        "30184",
        "0x0000000000000000000000006a8ac3a120e47101f7a794ca7445fff022d21f10"
      ],
      "transaction": {
        "from": "0xdb5af497a73620d881561edb508012a5f84e9ba2",
        "to": "0xcf17b4834223d7e54b92f8e43229c1e82faf7226",
        "gas": "0x11d9d",
        "value": "0x0",
        "input": "0x3400288b00000000000000000000000000000000000000000000000000000000000075e80000000000000000000000006a8ac3a120e47101f7a794ca7445fff022d21f10",
        "nonce": "0x3f",
        "chainId": "0xa4b1"
      },
      "additionalContracts": [],
      "isFixedGasLimit": false
    },
    {
      "hash": "0x7df03e1c1337d60091dae2fbcf9477fff0f242688d7d024d28e31e659208abbb",
      "transactionType": "CALL",
      "contractName": "MarketLayerZeroBridge",
      "contractAddress": "0xcf17b4834223d7e54b92f8e43229c1e82faf7226",
      "function": "setBridgeConfig((uint32,address))",
      "arguments": [
        "(30184, 0x6a8Ac3a120E47101F7a794Ca7445fff022D21F10)"
      ],
      "transaction": {
        "from": "0xdb5af497a73620d881561edb508012a5f84e9ba2",
        "to": "0xcf17b4834223d7e54b92f8e43229c1e82faf7226",
        "gas": "0x12186",
        "value": "0x0",
        "input": "0x90919c2e00000000000000000000000000000000000000000000000000000000000075e80000000000000000000000006a8ac3a120e47101f7a794ca7445fff022d21f10",
        "nonce": "0x40",
        "chainId": "0xa4b1"
      },
      "additionalContracts": [],
      "isFixedGasLimit": false
    },
    {
      "hash": "0xdfcf021dd196c1dee46ceb79e3d808c3a8934426c805e74f6df95de80818e7c7",
      "transactionType": "CALL",
      "contractName": "MarketLayerZeroBridge",
      "contractAddress": "0xcf17b4834223d7e54b92f8e43229c1e82faf7226",
      "function": "setLzReceiveCost(uint128)",
      "arguments": [
        "1000000"
      ],
      "transaction": {
        "from": "0xdb5af497a73620d881561edb508012a5f84e9ba2",
        "to": "0xcf17b4834223d7e54b92f8e43229c1e82faf7226",
        "gas": "0xfcff",
        "value": "0x0",
        "input": "0x8ff6d47700000000000000000000000000000000000000000000000000000000000f4240",
        "nonce": "0x41",
        "chainId": "0xa4b1"
      },
      "additionalContracts": [],
      "isFixedGasLimit": false
    },
    {
      "hash": "0xbbc6c53c4e0b6dd130c12a6e38d3762875c081b3f27b684544d63e2ad8851c90",
      "transactionType": "CALL",
      "contractName": "MarketLayerZeroBridge",
      "contractAddress": "0xcf17b4834223d7e54b92f8e43229c1e82faf7226",
      "function": "setGasThresholds(uint256,uint256)",
      "arguments": [
        "10000000000000000",
        "5000000000000000"
      ],
      "transaction": {
        "from": "0xdb5af497a73620d881561edb508012a5f84e9ba2",
        "to": "0xcf17b4834223d7e54b92f8e43229c1e82faf7226",
        "gas": "0x119f6",
        "value": "0x0",
        "input": "0x5a1377c0000000000000000000000000000000000000000000000000002386f26fc100000000000000000000000000000000000000000000000000000011c37937e08000",
        "nonce": "0x42",
        "chainId": "0xa4b1"
      },
      "additionalContracts": [],
      "isFixedGasLimit": false
    }
  ],
  "receipts": [
    {
      "status": "0x1",
      "cumulativeGasUsed": "0x2367af",
      "logs": [
        {
          "address": "0xcf17b4834223d7e54b92f8e43229c1e82faf7226",
          "topics": [
            "0x238399d427b947898edb290f5ff0f9109849b1c3ba196a42e35f00c50a54b98b"
          ],
          "data": "0x00000000000000000000000000000000000000000000000000000000000075e80000000000000000000000006a8ac3a120e47101f7a794ca7445fff022d21f10",
          "blockHash": "0x6527a7b0aee4576acba2990ca5895c4b1a86b4210cedddd63d8bb60b83599b92",
          "blockNumber": "0x15ea82fb",
          "transactionHash": "0xcc926bcbdc9d2e1858251808ad2b0a56ed6527ee437cf7645fabe91a9265c588",
          "transactionIndex": "0x3",
          "logIndex": "0x19",
          "removed": false
        }
      ],
      "logsBloom": "0x00000000000000000000000000000000000000000000000000000000000000000000000000000800000000000000000000000000000000000800000000000000000000000000000000000000000000000000000000000000000000000000000000000000000000000000000000000000000002000000000001000000000000000000000000000000000000000000000000000000000000000000000000000000000000000000000000000000000000000000000000000000000002000000000000000000000000000000000000000000000000000000000000040000000000000000000000000000000000000000000000000000000000000000000000000000",
      "type": "0x2",
      "transactionHash": "0xcc926bcbdc9d2e1858251808ad2b0a56ed6527ee437cf7645fabe91a9265c588",
      "transactionIndex": "0x3",
      "blockHash": "0x6527a7b0aee4576acba2990ca5895c4b1a86b4210cedddd63d8bb60b83599b92",
      "blockNumber": "0x15ea82fb",
      "gasUsed": "0xbc9a",
      "effectiveGasPrice": "0xc2f628",
      "from": "0xdb5af497a73620d881561edb508012a5f84e9ba2",
      "to": "0xcf17b4834223d7e54b92f8e43229c1e82faf7226",
      "contractAddress": null,
      "gasUsedForL1": "0x44fc",
      "l1BlockNumber": "0x160dfcb",
      "timeboosted": false
    },
    {
      "status": "0x1",
      "cumulativeGasUsed": "0x27ab4",
      "logs": [
        {
          "address": "0xcf17b4834223d7e54b92f8e43229c1e82faf7226",
          "topics": [
            "0x667c4919e9f81a90720a09575224afc1e5c12c569c86afa746138907a029cd0d"
          ],
          "data": "0x00000000000000000000000000000000000000000000000000000000000075e80000000000000000000000006a8ac3a120e47101f7a794ca7445fff022d21f10",
          "blockHash": "0x40d001fb922d893b043f2432528c583fd4c2cb6386df419041596f66b1348726",
          "blockNumber": "0x15ea8308",
          "transactionHash": "0x7df03e1c1337d60091dae2fbcf9477fff0f242688d7d024d28e31e659208abbb",
          "transactionIndex": "0x3",
          "logIndex": "0x1",
          "removed": false
        }
      ],
      "logsBloom": "0x00000000000000000000000000000000000000000000000000000000000000000000000000000800000000000000000000000000000000000000000000000000000000000000000000000000000000000000000000000000000000000000000000000000000000000000000000000000000002000000000001000000000000000000000000000000000000000000000000000000000000000000000000000000000000000000000000000000000000000000000000000000000000000000000000000000000000000000000000000004000000000000000000000000000000000000000010000000000000000000000000000000000000000000004000000000",
      "type": "0x2",
      "transactionHash": "0x7df03e1c1337d60091dae2fbcf9477fff0f242688d7d024d28e31e659208abbb",
      "transactionIndex": "0x3",
      "blockHash": "0x40d001fb922d893b043f2432528c583fd4c2cb6386df419041596f66b1348726",
      "blockNumber": "0x15ea8308",
      "gasUsed": "0xbf23",
      "effectiveGasPrice": "0xc03ed8",
      "from": "0xdb5af497a73620d881561edb508012a5f84e9ba2",
      "to": "0xcf17b4834223d7e54b92f8e43229c1e82faf7226",
      "contractAddress": null,
      "gasUsedForL1": "0x45f6",
      "l1BlockNumber": "0x160dfcb",
      "timeboosted": false
    },
    {
      "status": "0x1",
      "cumulativeGasUsed": "0x6ae52",
      "logs": [
        {
          "address": "0xcf17b4834223d7e54b92f8e43229c1e82faf7226",
          "topics": [
            "0x68c77771c713eb95ad51d8439730c7476d2957e71c0868ad8c567354a37ec122"
          ],
          "data": "0x00000000000000000000000000000000000000000000000000000000000f4240",
          "blockHash": "0x160ef134bf3cb511e708e9deda0894a2bcd9f6ae34f3708ced4ad39643623348",
          "blockNumber": "0x15ea8315",
          "transactionHash": "0xdfcf021dd196c1dee46ceb79e3d808c3a8934426c805e74f6df95de80818e7c7",
          "transactionIndex": "0x4",
          "logIndex": "0x1",
          "removed": false
        }
      ],
      "logsBloom": "0x00000000008000000000000200000000000000000000000000000000000000000000000000000800000000000000000000000000000000000000000000000000000000000000000000000000000000000000000000000000000000000000000000000000000000000000000000000000000002000000000001000000000000000000000000000000000000000000000000000000000000000000000000000000000000000000000000000000000000000000000000000000000000000000000000000000000000000000000000000000000000000000000000000001000000000000000000000000000000000000000000000000000000000000000000000000",
      "type": "0x2",
      "transactionHash": "0xdfcf021dd196c1dee46ceb79e3d808c3a8934426c805e74f6df95de80818e7c7",
      "transactionIndex": "0x4",
      "blockHash": "0x160ef134bf3cb511e708e9deda0894a2bcd9f6ae34f3708ced4ad39643623348",
      "blockNumber": "0x15ea8315",
      "gasUsed": "0xa2e6",
      "effectiveGasPrice": "0xbecfa8",
      "from": "0xdb5af497a73620d881561edb508012a5f84e9ba2",
      "to": "0xcf17b4834223d7e54b92f8e43229c1e82faf7226",
      "contractAddress": null,
      "gasUsedForL1": "0x393f",
      "l1BlockNumber": "0x160dfcb",
      "timeboosted": false
    },
    {
      "status": "0x1",
      "cumulativeGasUsed": "0x13ee35",
      "logs": [
        {
          "address": "0xcf17b4834223d7e54b92f8e43229c1e82faf7226",
          "topics": [
            "0x98a5dcfe5d371f4a9a0e6d72aa7025644bfcbd134ffca8f85ae421c83f152f04"
          ],
          "data": "0x000000000000000000000000000000000000000000000000002386f26fc100000000000000000000000000000000000000000000000000000011c37937e08000",
          "blockHash": "0x2f353b67b276236f8da53decc944ee6d668983f6b1d733a2ab523a2bbc1cd84d",
          "blockNumber": "0x15ea8322",
          "transactionHash": "0xbbc6c53c4e0b6dd130c12a6e38d3762875c081b3f27b684544d63e2ad8851c90",
          "transactionIndex": "0x5",
          "logIndex": "0x5a",
          "removed": false
        }
      ],
      "logsBloom": "0x00000000000000000000000000000000000000000000000000000020000000000000000000000800000000000000000000000000000000000000000000000000000000000000000000000000000000000000000000000000000000000000000000000000000000000000000000000000000002000000000001000000000000000008000020000000000000000000000000000000000000000000000000000000000000000000000000000000000000000000000000000000000000000000000000000000000000000000000000000000000000000000000000000000000000000000000000000000000000000000000000000000000000000000000000000000",
      "type": "0x2",
      "transactionHash": "0xbbc6c53c4e0b6dd130c12a6e38d3762875c081b3f27b684544d63e2ad8851c90",
      "transactionIndex": "0x5",
      "blockHash": "0x2f353b67b276236f8da53decc944ee6d668983f6b1d733a2ab523a2bbc1cd84d",
      "blockNumber": "0x15ea8322",
      "gasUsed": "0xbad3",
      "effectiveGasPrice": "0xbdfcb8",
      "from": "0xdb5af497a73620d881561edb508012a5f84e9ba2",
      "to": "0xcf17b4834223d7e54b92f8e43229c1e82faf7226",
      "contractAddress": null,
      "gasUsedForL1": "0x46cb",
      "l1BlockNumber": "0x160dfcb",
      "timeboosted": false
    }
  ],
  "libraries": [],
  "pending": [],
  "returns": {},
  "timestamp": 1755013774,
  "chain": 42161,
  "commit": "376e5c8a"
}