{
  "transactions": [
    {
      "hash": "0x849e086bd63f288176e91b87436468dc00bd90f6d52f444b4d8540bbbeb43cb4",
      "transactionType": "CALL",
      "contractName": null,
      "contractAddress": "0x5234634f1089c5af95662e88feb8a5e0fc647ed4",
      "function": "setPeer(uint32,bytes32)",
      "arguments": [
        "30110",
        "0x000000000000000000000000cf17b4834223d7e54b92f8e43229c1e82faf7226"
      ],
      "transaction": {
        "from": "0xdb5af497a73620d881561edb508012a5f84e9ba2",
        "to": "0x5234634f1089c5af95662e88feb8a5e0fc647ed4",
        "gas": "0x10120",
        "value": "0x0",
        "input": "0x3400288b000000000000000000000000000000000000000000000000000000000000759e000000000000000000000000cf17b4834223d7e54b92f8e43229c1e82faf7226",
        "nonce": "0x31a",
        "chainId": "0x2105"
      },
      "additionalContracts": [],
      "isFixedGasLimit": false
    },
    {
      "hash": "0xc0830d85f0ff67711b6d83aaf3d1b3a62362ee0eabebdd76a07ce35ff0f9fa9e",
      "transactionType": "CALL",
      "contractName": null,
      "contractAddress": "0x5234634f1089c5af95662e88feb8a5e0fc647ed4",
      "function": "setBridgeConfig((uint32,address))",
      "arguments": [
        "(30110, 0xCf17b4834223D7e54B92f8e43229C1E82faF7226)"
      ],
      "transaction": {
        "from": "0xdb5af497a73620d881561edb508012a5f84e9ba2",
        "to": "0x5234634f1089c5af95662e88feb8a5e0fc647ed4",
        "gas": "0x103c0",
        "value": "0x0",
        "input": "0x90919c2e000000000000000000000000000000000000000000000000000000000000759e000000000000000000000000cf17b4834223d7e54b92f8e43229c1e82faf7226",
        "nonce": "0x31b",
        "chainId": "0x2105"
      },
      "additionalContracts": [],
      "isFixedGasLimit": false
    },
    {
      "hash": "0xb68721bf13586decfb3f9deb68e444d25c20d0df32a92f4d446db63f4f8e5024",
      "transactionType": "CALL",
      "contractName": null,
      "contractAddress": "0x5234634f1089c5af95662e88feb8a5e0fc647ed4",
      "function": "setOptimisticOracleV3(address)",
      "arguments": [
        "0x2aBf1Bd76655de80eDB3086114315Eec75AF500c"
      ],
      "transaction": {
        "from": "0xdb5af497a73620d881561edb508012a5f84e9ba2",
        "to": "0x5234634f1089c5af95662e88feb8a5e0fc647ed4",
        "gas": "0xff00",
        "value": "0x0",
        "input": "0x9a8774ac0000000000000000000000002abf1bd76655de80edb3086114315eec75af500c",
        "nonce": "0x31c",
        "chainId": "0x2105"
      },
      "additionalContracts": [],
      "isFixedGasLimit": false
    },
    {
      "hash": "0xfa0976910df127a1611b8256c1cc3594ef87bc153533a9022995407ad868d950",
      "transactionType": "CALL",
      "contractName": null,
      "contractAddress": "0x5234634f1089c5af95662e88feb8a5e0fc647ed4",
      "function": "setLzReceiveCost(uint128)",
      "arguments": [
        "1000000"
      ],
      "transaction": {
        "from": "0xdb5af497a73620d881561edb508012a5f84e9ba2",
        "to": "0x5234634f1089c5af95662e88feb8a5e0fc647ed4",
        "gas": "0x10c54",
        "value": "0x0",
        "input": "0x8ff6d47700000000000000000000000000000000000000000000000000000000000f4240",
        "nonce": "0x31d",
        "chainId": "0x2105"
      },
      "additionalContracts": [],
      "isFixedGasLimit": false
    },
    {
      "hash": "0x001ebe07fa955512c81196cf9f3e519cc9b7846ba687c1da2284ffbb70853b23",
      "transactionType": "CALL",
      "contractName": null,
      "contractAddress": "0x5234634f1089c5af95662e88feb8a5e0fc647ed4",
      "function": "setGasThresholds(uint256,uint256)",
      "arguments": [
        "10000000000000000",
        "5000000000000000"
      ],
      "transaction": {
        "from": "0xdb5af497a73620d881561edb508012a5f84e9ba2",
        "to": "0x5234634f1089c5af95662e88feb8a5e0fc647ed4",
        "gas": "0xbe98",
        "value": "0x0",
        "input": "0x5a1377c0000000000000000000000000000000000000000000000000002386f26fc100000000000000000000000000000000000000000000000000000011c37937e08000",
        "nonce": "0x31e",
        "chainId": "0x2105"
      },
      "additionalContracts": [],
      "isFixedGasLimit": false
    }
  ],
  "receipts": [
    {
      "status": "0x1",
      "cumulativeGasUsed": "0xea29f7",
      "logs": [
        {
          "address": "0x5234634f1089c5af95662e88feb8a5e0fc647ed4",
          "topics": [
            "0x238399d427b947898edb290f5ff0f9109849b1c3ba196a42e35f00c50a54b98b"
          ],
          "data": "0x000000000000000000000000000000000000000000000000000000000000759e000000000000000000000000cf17b4834223d7e54b92f8e43229c1e82faf7226",
          "blockHash": "0x55aaa9b40a4accbe0b08862ec9759694168c98c47ae25c49c7e50128433be66e",
          "blockNumber": "0x207d76e",
          "transactionHash": "0x849e086bd63f288176e91b87436468dc00bd90f6d52f444b4d8540bbbeb43cb4",
          "transactionIndex": "0x49",
          "logIndex": "0x150",
          "removed": false
        }
      ],
      "logsBloom": "0x00000000000000000000000000000000000000000000000000000000000000004000000000000000000000000000000000000000000000000800000000000000000000000000000000000000000000000000000000000000000000010000000000000000000000000000000000000000000000000000000000000000000000000000000000000000000000000000000000000000000000000000000000000000000000000000000000000000000000000000000000000000000082000000000000000000000000000000000000000000000000000000000000040000000000000000000000000000000000000000000000000000000000000000000000000000",
      "type": "0x2",
      "transactionHash": "0x849e086bd63f288176e91b87436468dc00bd90f6d52f444b4d8540bbbeb43cb4",
      "transactionIndex": "0x49",
      "blockHash": "0x55aaa9b40a4accbe0b08862ec9759694168c98c47ae25c49c7e50128433be66e",
      "blockNumber": "0x207d76e",
      "gasUsed": "0xba28",
      "effectiveGasPrice": "0xd65c8e",
      "from": "0xdb5af497a73620d881561edb508012a5f84e9ba2",
      "to": "0x5234634f1089c5af95662e88feb8a5e0fc647ed4",
      "contractAddress": null,
      "l1BaseFeeScalar": "0x8dd",
      "l1BlobBaseFee": "0x1",
      "l1BlobBaseFeeScalar": "0x101c12",
      "l1Fee": "0x141862918",
      "l1GasPrice": "0x58907a00",
      "l1GasUsed": "0x640"
    },
    {
      "status": "0x1",
      "cumulativeGasUsed": "0xeae606",
      "logs": [
        {
          "address": "0x5234634f1089c5af95662e88feb8a5e0fc647ed4",
          "topics": [
            "0x667c4919e9f81a90720a09575224afc1e5c12c569c86afa746138907a029cd0d"
          ],
          "data": "0x000000000000000000000000000000000000000000000000000000000000759e000000000000000000000000cf17b4834223d7e54b92f8e43229c1e82faf7226",
          "blockHash": "0x55aaa9b40a4accbe0b08862ec9759694168c98c47ae25c49c7e50128433be66e",
          "blockNumber": "0x207d76e",
          "transactionHash": "0xc0830d85f0ff67711b6d83aaf3d1b3a62362ee0eabebdd76a07ce35ff0f9fa9e",
          "transactionIndex": "0x4a",
          "logIndex": "0x151",
          "removed": false
        }
      ],
      "logsBloom": "0x00000000000000000000000000000000000000000000000000000000000000004000000000000000000000000000000000000000000000000000000000000000000000000000000000000000000000000000000000000000000000010000000000000000000000000000000000000000000000000000000000000000000000000000000000000000000000000000000000000000000000000000000000000000000000000000000000000000000000000000000000000000000080000000000000000000000000000000000000000004000000000000000000000000000000000000000010000000000000000000000000000000000000000000004000000000",
      "type": "0x2",
      "transactionHash": "0xc0830d85f0ff67711b6d83aaf3d1b3a62362ee0eabebdd76a07ce35ff0f9fa9e",
      "transactionIndex": "0x4a",
      "blockHash": "0x55aaa9b40a4accbe0b08862ec9759694168c98c47ae25c49c7e50128433be66e",
      "blockNumber": "0x207d76e",
      "gasUsed": "0xbc0f",
      "effectiveGasPrice": "0xd65c8e",
      "from": "0xdb5af497a73620d881561edb508012a5f84e9ba2",
      "to": "0x5234634f1089c5af95662e88feb8a5e0fc647ed4",
      "contractAddress": null,
      "l1BaseFeeScalar": "0x8dd",
      "l1BlobBaseFee": "0x1",
      "l1BlobBaseFeeScalar": "0x101c12",
      "l1Fee": "0x141862918",
      "l1GasPrice": "0x58907a00",
      "l1GasUsed": "0x640"
    },
    {
      "status": "0x1",
      "cumulativeGasUsed": "0xeb9ea5",
      "logs": [
        {
          "address": "0x5234634f1089c5af95662e88feb8a5e0fc647ed4",
          "topics": [
            "0x48e5f5a5d80ef5b7285da75d7be3035affd0e1576397fcc0c132f25078b18385",
            "0x0000000000000000000000002abf1bd76655de80edb3086114315eec75af500c"
          ],
          "data": "0x",
          "blockHash": "0x55aaa9b40a4accbe0b08862ec9759694168c98c47ae25c49c7e50128433be66e",
          "blockNumber": "0x207d76e",
          "transactionHash": "0xb68721bf13586decfb3f9deb68e444d25c20d0df32a92f4d446db63f4f8e5024",
          "transactionIndex": "0x4b",
          "logIndex": "0x152",
          "removed": false
        }
      ],
      "logsBloom": "0x00000000000000000000000000000000000000000000000000000000000000004000000000000000008000000000000000000000000000000000000000000000000000000000000000000000000000000000000000000000000000010100000000000000000000000000000000000000000000000000000000000000000000000000200000000000000000000000000000000000000000000000000000000000000000000000000000000000000000004000000000000200000080000000000000000000000000000000000000000000000000000000000000000000000000000000000000000000000000000000000000000000004000000000000000000000",
      "type": "0x2",
      "transactionHash": "0xb68721bf13586decfb3f9deb68e444d25c20d0df32a92f4d446db63f4f8e5024",
      "transactionIndex": "0x4b",
      "blockHash": "0x55aaa9b40a4accbe0b08862ec9759694168c98c47ae25c49c7e50128433be66e",
      "blockNumber": "0x207d76e",
      "gasUsed": "0xb89f",
      "effectiveGasPrice": "0xd65c8e",
      "from": "0xdb5af497a73620d881561edb508012a5f84e9ba2",
      "to": "0x5234634f1089c5af95662e88feb8a5e0fc647ed4",
      "contractAddress": null,
      "l1BaseFeeScalar": "0x8dd",
      "l1BlobBaseFee": "0x1",
      "l1BlobBaseFeeScalar": "0x101c12",
      "l1Fee": "0x141862918",
      "l1GasPrice": "0x58907a00",
      "l1GasUsed": "0x640"
    },
    {
      "status": "0x1",
      "cumulativeGasUsed": "0xec561e",
      "logs": [
        {
          "address": "0x5234634f1089c5af95662e88feb8a5e0fc647ed4",
          "topics": [
            "0x68c77771c713eb95ad51d8439730c7476d2957e71c0868ad8c567354a37ec122"
          ],
          "data": "0x00000000000000000000000000000000000000000000000000000000000f4240",
          "blockHash": "0x55aaa9b40a4accbe0b08862ec9759694168c98c47ae25c49c7e50128433be66e",
          "blockNumber": "0x207d76e",
          "transactionHash": "0xfa0976910df127a1611b8256c1cc3594ef87bc153533a9022995407ad868d950",
          "transactionIndex": "0x4c",
          "logIndex": "0x153",
          "removed": false
        }
      ],
      "logsBloom": "0x00000000008000000000000200000000000000000000000000000000000000004000000000000000000000000000000000000000000000000000000000000000000000000000000000000000000000000000000000000000000000010000000000000000000000000000000000000000000000000000000000000000000000000000000000000000000000000000000000000000000000000000000000000000000000000000000000000000000000000000000000000000000080000000000000000000000000000000000000000000000000000000000000000001000000000000000000000000000000000000000000000000000000000000000000000000",
      "type": "0x2",
      "transactionHash": "0xfa0976910df127a1611b8256c1cc3594ef87bc153533a9022995407ad868d950",
      "transactionIndex": "0x4c",
      "blockHash": "0x55aaa9b40a4accbe0b08862ec9759694168c98c47ae25c49c7e50128433be66e",
      "blockNumber": "0x207d76e",
      "gasUsed": "0xb779",
      "effectiveGasPrice": "0xd65c8e",
      "from": "0xdb5af497a73620d881561edb508012a5f84e9ba2",
      "to": "0x5234634f1089c5af95662e88feb8a5e0fc647ed4",
      "contractAddress": null,
      "l1BaseFeeScalar": "0x8dd",
      "l1BlobBaseFee": "0x1",
      "l1BlobBaseFeeScalar": "0x101c12",
      "l1Fee": "0x141862918",
      "l1GasPrice": "0x58907a00",
      "l1GasUsed": "0x640"
    },
    {
      "status": "0x1",
      "cumulativeGasUsed": "0xece01c",
      "logs": [
        {
          "address": "0x5234634f1089c5af95662e88feb8a5e0fc647ed4",
          "topics": [
            "0x98a5dcfe5d371f4a9a0e6d72aa7025644bfcbd134ffca8f85ae421c83f152f04"
          ],
          "data": "0x000000000000000000000000000000000000000000000000002386f26fc100000000000000000000000000000000000000000000000000000011c37937e08000",
          "blockHash": "0x55aaa9b40a4accbe0b08862ec9759694168c98c47ae25c49c7e50128433be66e",
          "blockNumber": "0x207d76e",
          "transactionHash": "0x001ebe07fa955512c81196cf9f3e519cc9b7846ba687c1da2284ffbb70853b23",
          "transactionIndex": "0x4d",
          "logIndex": "0x154",
          "removed": false
        }
      ],
      "logsBloom": "0x00000000000000000000000000000000000000000000000000000020000000004000000000000000000000000000000000000000000000000000000000000000000000000000000000000000000000000000000000000000000000010000000000000000000000000000000000000000000000000000000000000000000000000008000020000000000000000000000000000000000000000000000000000000000000000000000000000000000000000000000000000000000080000000000000000000000000000000000000000000000000000000000000000000000000000000000000000000000000000000000000000000000000000000000000000000",
      "type": "0x2",
      "transactionHash": "0x001ebe07fa955512c81196cf9f3e519cc9b7846ba687c1da2284ffbb70853b23",
      "transactionIndex": "0x4d",
      "blockHash": "0x55aaa9b40a4accbe0b08862ec9759694168c98c47ae25c49c7e50128433be66e",
      "blockNumber": "0x207d76e",
      "gasUsed": "0x89fe",
      "effectiveGasPrice": "0xd65c8e",
      "from": "0xdb5af497a73620d881561edb508012a5f84e9ba2",
      "to": "0x5234634f1089c5af95662e88feb8a5e0fc647ed4",
      "contractAddress": null,
      "l1BaseFeeScalar": "0x8dd",
      "l1BlobBaseFee": "0x1",
      "l1BlobBaseFeeScalar": "0x101c12",
      "l1Fee": "0x141862918",
      "l1GasPrice": "0x58907a00",
      "l1GasUsed": "0x640"
    }
  ],
  "libraries": [],
  "pending": [],
  "returns": {},
  "timestamp": 1754926016,
  "chain": 8453,
  "commit": "ca09115f"
}