{
  "transactions": [
    {
      "hash": "0x586e8efa2c68427158633f14e56102abbd0b46bc79d35f1e51b8ec3292ed24d6",
      "transactionType": "CALL",
      "contractName": "UMALayerZeroBridge",
      "contractAddress": "0x5234634f1089c5af95662e88feb8a5e0fc647ed4",
      "function": "setPeer(uint32,bytes32)",
      "arguments": [
        "30110",
        "0x000000000000000000000000cf17b4834223d7e54b92f8e43229c1e82faf7226"
      ],
      "transaction": {
        "from": "0xdb5af497a73620d881561edb508012a5f84e9ba2",
        "to": "0x5234634f1089c5af95662e88feb8a5e0fc647ed4",
        "gas": "0x95c1",
        "value": "0x0",
        "input": "0x3400288b000000000000000000000000000000000000000000000000000000000000759e000000000000000000000000cf17b4834223d7e54b92f8e43229c1e82faf7226",
        "nonce": "0x325",
        "chainId": "0x2105"
      },
      "additionalContracts": [],
      "isFixedGasLimit": false
    },
    {
      "hash": "0xf9e9a7a7f77a40e544cff0d85a05403dd3dcbf9b03ae5dd27c8dcb247fa24209",
      "transactionType": "CALL",
      "contractName": "UMALayerZeroBridge",
      "contractAddress": "0x5234634f1089c5af95662e88feb8a5e0fc647ed4",
      "function": "setBridgeConfig((uint32,address))",
      "arguments": [
        "(30110, 0xCf17b4834223D7e54B92f8e43229C1E82faF7226)"
      ],
      "transaction": {
        "from": "0xdb5af497a73620d881561edb508012a5f84e9ba2",
        "to": "0x5234634f1089c5af95662e88feb8a5e0fc647ed4",
        "gas": "0xa158",
        "value": "0x0",
        "input": "0x90919c2e000000000000000000000000000000000000000000000000000000000000759e000000000000000000000000cf17b4834223d7e54b92f8e43229c1e82faf7226",
        "nonce": "0x326",
        "chainId": "0x2105"
      },
      "additionalContracts": [],
      "isFixedGasLimit": false
    },
    {
      "hash": "0x61ffcc676206927e66760d5afe88cb49de6a8634e432b124ccdfd65799e40759",
      "transactionType": "CALL",
      "contractName": "UMALayerZeroBridge",
      "contractAddress": "0x5234634f1089c5af95662e88feb8a5e0fc647ed4",
      "function": "setOptimisticOracleV3(address)",
      "arguments": [
        "0x2aBf1Bd76655de80eDB3086114315Eec75AF500c"
      ],
      "transaction": {
        "from": "0xdb5af497a73620d881561edb508012a5f84e9ba2",
        "to": "0x5234634f1089c5af95662e88feb8a5e0fc647ed4",
        "gas": "0x9c51",
        "value": "0x0",
        "input": "0x9a8774ac0000000000000000000000002abf1bd76655de80edb3086114315eec75af500c",
        "nonce": "0x327",
        "chainId": "0x2105"
      },
      "additionalContracts": [],
      "isFixedGasLimit": false
    },
    {
      "hash": "0xefe0c1b9341ac05d8f37201854721a6177eda44d0233b3af423fb3be46c62b26",
      "transactionType": "CALL",
      "contractName": "UMALayerZeroBridge",
      "contractAddress": "0x5234634f1089c5af95662e88feb8a5e0fc647ed4",
      "function": "setLzReceiveCost(uint128)",
      "arguments": [
        "1000000"
      ],
      "transaction": {
        "from": "0xdb5af497a73620d881561edb508012a5f84e9ba2",
        "to": "0x5234634f1089c5af95662e88feb8a5e0fc647ed4",
        "gas": "0x920c",
        "value": "0x0",
        "input": "0x8ff6d47700000000000000000000000000000000000000000000000000000000000f4240",
        "nonce": "0x328",
        "chainId": "0x2105"
      },
      "additionalContracts": [],
      "isFixedGasLimit": false
    },
    {
      "hash": "0x8f0f3ed62994279e1f85ef2131229eb9bb1297acfc8fb0acbae5db5e3ed88c3f",
      "transactionType": "CALL",
      "contractName": "UMALayerZeroBridge",
      "contractAddress": "0x5234634f1089c5af95662e88feb8a5e0fc647ed4",
      "function": "setGasThresholds(uint256,uint256)",
      "arguments": [
        "10000000000000000",
        "5000000000000000"
      ],
      "transaction": {
        "from": "0xdb5af497a73620d881561edb508012a5f84e9ba2",
        "to": "0x5234634f1089c5af95662e88feb8a5e0fc647ed4",
        "gas": "0xa061",
        "value": "0x0",
        "input": "0x5a1377c0000000000000000000000000000000000000000000000000002386f26fc100000000000000000000000000000000000000000000000000000011c37937e08000",
        "nonce": "0x329",
        "chainId": "0x2105"
      },
      "additionalContracts": [],
      "isFixedGasLimit": false
    }
  ],
  "receipts": [
    {
      "status": "0x1",
      "cumulativeGasUsed": "0x2200a67",
      "logs": [
        {
          "address": "0x5234634f1089c5af95662e88feb8a5e0fc647ed4",
          "topics": [
            "0x238399d427b947898edb290f5ff0f9109849b1c3ba196a42e35f00c50a54b98b"
          ],
          "data": "0x000000000000000000000000000000000000000000000000000000000000759e000000000000000000000000cf17b4834223d7e54b92f8e43229c1e82faf7226",
          "blockHash": "0x16f4e19cd0c81112db0a85bc349a488eed99d4e924a98eee38d076e50fed5a1f",
          "blockNumber": "0x2088280",
          "blockTimestamp": "0x689b61e3",
          "transactionHash": "0x586e8efa2c68427158633f14e56102abbd0b46bc79d35f1e51b8ec3292ed24d6",
          "transactionIndex": "0x75",
          "logIndex": "0x36b",
          "removed": false
        }
      ],
      "logsBloom": "0x00000000000000000000000000000000000000000000000000000000000000004000000000000000000000000000000000000000000000000800000000000000000000000000000000000000000000000000000000000000000000010000000000000000000000000000000000000000000000000000000000000000000000000000000000000000000000000000000000000000000000000000000000000000000000000000000000000000000000000000000000000000000082000000000000000000000000000000000000000000000000000000000000040000000000000000000000000000000000000000000000000000000000000000000000000000",
      "type": "0x2",
      "transactionHash": "0x586e8efa2c68427158633f14e56102abbd0b46bc79d35f1e51b8ec3292ed24d6",
      "transactionIndex": "0x75",
      "blockHash": "0x16f4e19cd0c81112db0a85bc349a488eed99d4e924a98eee38d076e50fed5a1f",
      "blockNumber": "0x2088280",
      "gasUsed": "0x6c6c",
      "effectiveGasPrice": "0xadc96b",
      "from": "0xdb5af497a73620d881561edb508012a5f84e9ba2",
      "to": "0x5234634f1089c5af95662e88feb8a5e0fc647ed4",
      "contractAddress": null,
      "l1BaseFeeScalar": "0x8dd",
      "l1BlobBaseFee": "0x1",
      "l1BlobBaseFeeScalar": "0x101c12",
      "l1Fee": "0x2a410b151",
      "l1GasPrice": "0xba392c8e",
      "l1GasUsed": "0x640"
    },
    {
      "status": "0x1",
      "cumulativeGasUsed": "0x22078ba",
      "logs": [
        {
          "address": "0x5234634f1089c5af95662e88feb8a5e0fc647ed4",
          "topics": [
            "0x667c4919e9f81a90720a09575224afc1e5c12c569c86afa746138907a029cd0d"
          ],
          "data": "0x000000000000000000000000000000000000000000000000000000000000759e000000000000000000000000cf17b4834223d7e54b92f8e43229c1e82faf7226",
          "blockHash": "0x16f4e19cd0c81112db0a85bc349a488eed99d4e924a98eee38d076e50fed5a1f",
          "blockNumber": "0x2088280",
          "blockTimestamp": "0x689b61e3",
          "transactionHash": "0xf9e9a7a7f77a40e544cff0d85a05403dd3dcbf9b03ae5dd27c8dcb247fa24209",
          "transactionIndex": "0x76",
          "logIndex": "0x36c",
          "removed": false
        }
      ],
      "logsBloom": "0x00000000000000000000000000000000000000000000000000000000000000004000000000000000000000000000000000000000000000000000000000000000000000000000000000000000000000000000000000000000000000010000000000000000000000000000000000000000000000000000000000000000000000000000000000000000000000000000000000000000000000000000000000000000000000000000000000000000000000000000000000000000000080000000000000000000000000000000000000000004000000000000000000000000000000000000000010000000000000000000000000000000000000000000004000000000",
      "type": "0x2",
      "transactionHash": "0xf9e9a7a7f77a40e544cff0d85a05403dd3dcbf9b03ae5dd27c8dcb247fa24209",
      "transactionIndex": "0x76",
      "blockHash": "0x16f4e19cd0c81112db0a85bc349a488eed99d4e924a98eee38d076e50fed5a1f",
      "blockNumber": "0x2088280",
      "gasUsed": "0x6e53",
      "effectiveGasPrice": "0xadc96b",
      "from": "0xdb5af497a73620d881561edb508012a5f84e9ba2",
      "to": "0x5234634f1089c5af95662e88feb8a5e0fc647ed4",
      "contractAddress": null,
      "l1BaseFeeScalar": "0x8dd",
      "l1BlobBaseFee": "0x1",
      "l1BlobBaseFeeScalar": "0x101c12",
      "l1Fee": "0x2a410b151",
      "l1GasPrice": "0xba392c8e",
      "l1GasUsed": "0x640"
    },
    {
      "status": "0x1",
      "cumulativeGasUsed": "0x220e39d",
      "logs": [
        {
          "address": "0x5234634f1089c5af95662e88feb8a5e0fc647ed4",
          "topics": [
            "0x48e5f5a5d80ef5b7285da75d7be3035affd0e1576397fcc0c132f25078b18385",
            "0x0000000000000000000000002abf1bd76655de80edb3086114315eec75af500c"
          ],
          "data": "0x",
          "blockHash": "0x16f4e19cd0c81112db0a85bc349a488eed99d4e924a98eee38d076e50fed5a1f",
          "blockNumber": "0x2088280",
          "blockTimestamp": "0x689b61e3",
          "transactionHash": "0x61ffcc676206927e66760d5afe88cb49de6a8634e432b124ccdfd65799e40759",
          "transactionIndex": "0x77",
          "logIndex": "0x36d",
          "removed": false
        }
      ],
      "logsBloom": "0x00000000000000000000000000000000000000000000000000000000000000004000000000000000008000000000000000000000000000000000000000000000000000000000000000000000000000000000000000000000000000010100000000000000000000000000000000000000000000000000000000000000000000000000200000000000000000000000000000000000000000000000000000000000000000000000000000000000000000004000000000000200000080000000000000000000000000000000000000000000000000000000000000000000000000000000000000000000000000000000000000000000004000000000000000000000",
      "type": "0x2",
      "transactionHash": "0x61ffcc676206927e66760d5afe88cb49de6a8634e432b124ccdfd65799e40759",
      "transactionIndex": "0x77",
      "blockHash": "0x16f4e19cd0c81112db0a85bc349a488eed99d4e924a98eee38d076e50fed5a1f",
      "blockNumber": "0x2088280",
      "gasUsed": "0x6ae3",
      "effectiveGasPrice": "0xadc96b",
      "from": "0xdb5af497a73620d881561edb508012a5f84e9ba2",
      "to": "0x5234634f1089c5af95662e88feb8a5e0fc647ed4",
      "contractAddress": null,
      "l1BaseFeeScalar": "0x8dd",
      "l1BlobBaseFee": "0x1",
      "l1BlobBaseFeeScalar": "0x101c12",
      "l1Fee": "0x2a410b151",
      "l1GasPrice": "0xba392c8e",
      "l1GasUsed": "0x640"
    },
    {
      "status": "0x1",
      "cumulativeGasUsed": "0x2214d5a",
      "logs": [
        {
          "address": "0x5234634f1089c5af95662e88feb8a5e0fc647ed4",
          "topics": [
            "0x68c77771c713eb95ad51d8439730c7476d2957e71c0868ad8c567354a37ec122"
          ],
          "data": "0x00000000000000000000000000000000000000000000000000000000000f4240",
          "blockHash": "0x16f4e19cd0c81112db0a85bc349a488eed99d4e924a98eee38d076e50fed5a1f",
          "blockNumber": "0x2088280",
          "blockTimestamp": "0x689b61e3",
          "transactionHash": "0xefe0c1b9341ac05d8f37201854721a6177eda44d0233b3af423fb3be46c62b26",
          "transactionIndex": "0x78",
          "logIndex": "0x36e",
          "removed": false
        }
      ],
      "logsBloom": "0x00000000008000000000000200000000000000000000000000000000000000004000000000000000000000000000000000000000000000000000000000000000000000000000000000000000000000000000000000000000000000010000000000000000000000000000000000000000000000000000000000000000000000000000000000000000000000000000000000000000000000000000000000000000000000000000000000000000000000000000000000000000000080000000000000000000000000000000000000000000000000000000000000000001000000000000000000000000000000000000000000000000000000000000000000000000",
      "type": "0x2",
      "transactionHash": "0xefe0c1b9341ac05d8f37201854721a6177eda44d0233b3af423fb3be46c62b26",
      "transactionIndex": "0x78",
      "blockHash": "0x16f4e19cd0c81112db0a85bc349a488eed99d4e924a98eee38d076e50fed5a1f",
      "blockNumber": "0x2088280",
      "gasUsed": "0x69bd",
      "effectiveGasPrice": "0xadc96b",
      "from": "0xdb5af497a73620d881561edb508012a5f84e9ba2",
      "to": "0x5234634f1089c5af95662e88feb8a5e0fc647ed4",
      "contractAddress": null,
      "l1BaseFeeScalar": "0x8dd",
      "l1BlobBaseFee": "0x1",
      "l1BlobBaseFeeScalar": "0x101c12",
      "l1Fee": "0x2a410b151",
      "l1GasPrice": "0xba392c8e",
      "l1GasUsed": "0x640"
    },
    {
      "status": "0x1",
      "cumulativeGasUsed": "0x221c178",
      "logs": [
        {
          "address": "0x5234634f1089c5af95662e88feb8a5e0fc647ed4",
          "topics": [
            "0x98a5dcfe5d371f4a9a0e6d72aa7025644bfcbd134ffca8f85ae421c83f152f04"
          ],
          "data": "0x000000000000000000000000000000000000000000000000002386f26fc100000000000000000000000000000000000000000000000000000011c37937e08000",
          "blockHash": "0x16f4e19cd0c81112db0a85bc349a488eed99d4e924a98eee38d076e50fed5a1f",
          "blockNumber": "0x2088280",
          "blockTimestamp": "0x689b61e3",
          "transactionHash": "0x8f0f3ed62994279e1f85ef2131229eb9bb1297acfc8fb0acbae5db5e3ed88c3f",
          "transactionIndex": "0x79",
          "logIndex": "0x36f",
          "removed": false
        }
      ],
      "logsBloom": "0x00000000000000000000000000000000000000000000000000000020000000004000000000000000000000000000000000000000000000000000000000000000000000000000000000000000000000000000000000000000000000010000000000000000000000000000000000000000000000000000000000000000000000000008000020000000000000000000000000000000000000000000000000000000000000000000000000000000000000000000000000000000000080000000000000000000000000000000000000000000000000000000000000000000000000000000000000000000000000000000000000000000000000000000000000000000",
      "type": "0x2",
      "transactionHash": "0x8f0f3ed62994279e1f85ef2131229eb9bb1297acfc8fb0acbae5db5e3ed88c3f",
      "transactionIndex": "0x79",
      "blockHash": "0x16f4e19cd0c81112db0a85bc349a488eed99d4e924a98eee38d076e50fed5a1f",
      "blockNumber": "0x2088280",
      "gasUsed": "0x741e",
      "effectiveGasPrice": "0xadc96b",
      "from": "0xdb5af497a73620d881561edb508012a5f84e9ba2",
      "to": "0x5234634f1089c5af95662e88feb8a5e0fc647ed4",
      "contractAddress": null,
      "l1BaseFeeScalar": "0x8dd",
      "l1BlobBaseFee": "0x1",
      "l1BlobBaseFeeScalar": "0x101c12",
      "l1Fee": "0x2a410b151",
      "l1GasPrice": "0xba392c8e",
      "l1GasUsed": "0x640"
    }
  ],
  "libraries": [],
  "pending": [],
  "returns": {},
  "timestamp": 1755013603,
  "chain": 8453,
  "commit": "376e5c8a"
}