{
  "transactions": [
    {
      "hash": "0xd969cda41fabf9d532c9798d7f652c94fd00982bb0a194e081683a2bcaeccad0",
      "transactionType": "CALL",
      "contractName": null,
      "contractAddress": "0x6a8ac3a120e47101f7a794ca7445fff022d21f10",
      "function": "setPeer(uint32,bytes32)",
      "arguments": [
        "30110",
        "0x000000000000000000000000cf17b4834223d7e54b92f8e43229c1e82faf7226"
      ],
      "transaction": {
        "from": "0xdb5af497a73620d881561edb508012a5f84e9ba2",
        "to": "0x6a8ac3a120e47101f7a794ca7445fff022d21f10",
        "gas": "0x10120",
        "value": "0x0",
        "input": "0x3400288b000000000000000000000000000000000000000000000000000000000000759e000000000000000000000000cf17b4834223d7e54b92f8e43229c1e82faf7226",
        "nonce": "0x32a",
        "chainId": "0x2105"
      },
      "additionalContracts": [],
      "isFixedGasLimit": false
    },
    {
      "hash": "0xe5cfa596577c16faddc6c3ecd68a1fa01ae6005b64f5da4449fc67f303be0657",
      "transactionType": "CALL",
      "contractName": null,
      "contractAddress": "0x6a8ac3a120e47101f7a794ca7445fff022d21f10",
      "function": "setBridgeConfig((uint32,address))",
      "arguments": [
        "(30110, 0xCf17b4834223D7e54B92f8e43229C1E82faF7226)"
      ],
      "transaction": {
        "from": "0xdb5af497a73620d881561edb508012a5f84e9ba2",
        "to": "0x6a8ac3a120e47101f7a794ca7445fff022d21f10",
        "gas": "0x103c0",
        "value": "0x0",
        "input": "0x90919c2e000000000000000000000000000000000000000000000000000000000000759e000000000000000000000000cf17b4834223d7e54b92f8e43229c1e82faf7226",
        "nonce": "0x32b",
        "chainId": "0x2105"
      },
      "additionalContracts": [],
      "isFixedGasLimit": false
    },
    {
      "hash": "0x81178e9a992acf5f8e8dd857b663a5ea3d921cd6fb2309fc5b2ebfc4f14fbcdd",
      "transactionType": "CALL",
      "contractName": null,
      "contractAddress": "0x6a8ac3a120e47101f7a794ca7445fff022d21f10",
      "function": "setOptimisticOracleV3(address)",
      "arguments": [
        "0x2aBf1Bd76655de80eDB3086114315Eec75AF500c"
      ],
      "transaction": {
        "from": "0xdb5af497a73620d881561edb508012a5f84e9ba2",
        "to": "0x6a8ac3a120e47101f7a794ca7445fff022d21f10",
        "gas": "0xff00",
        "value": "0x0",
        "input": "0x9a8774ac0000000000000000000000002abf1bd76655de80edb3086114315eec75af500c",
        "nonce": "0x32c",
        "chainId": "0x2105"
      },
      "additionalContracts": [],
      "isFixedGasLimit": false
    },
    {
      "hash": "0x348ccd6a0b04946df610554924785ee81eb926895c7d2e52871df44f6b947c3e",
      "transactionType": "CALL",
      "contractName": null,
      "contractAddress": "0x6a8ac3a120e47101f7a794ca7445fff022d21f10",
      "function": "setLzReceiveCost(uint128)",
      "arguments": [
        "1000000"
      ],
      "transaction": {
        "from": "0xdb5af497a73620d881561edb508012a5f84e9ba2",
        "to": "0x6a8ac3a120e47101f7a794ca7445fff022d21f10",
        "gas": "0x10c54",
        "value": "0x0",
        "input": "0x8ff6d47700000000000000000000000000000000000000000000000000000000000f4240",
        "nonce": "0x32d",
        "chainId": "0x2105"
      },
      "additionalContracts": [],
      "isFixedGasLimit": false
    },
    {
      "hash": "0x4a1ab80dc61d39866433ab9588056cc576790ea76a03c8b05c3acc9be1d25428",
      "transactionType": "CALL",
      "contractName": null,
      "contractAddress": "0x6a8ac3a120e47101f7a794ca7445fff022d21f10",
      "function": "setGasThresholds(uint256,uint256)",
      "arguments": [
        "10000000000000000",
        "5000000000000000"
      ],
      "transaction": {
        "from": "0xdb5af497a73620d881561edb508012a5f84e9ba2",
        "to": "0x6a8ac3a120e47101f7a794ca7445fff022d21f10",
        "gas": "0xbe98",
        "value": "0x0",
        "input": "0x5a1377c0000000000000000000000000000000000000000000000000002386f26fc100000000000000000000000000000000000000000000000000000011c37937e08000",
        "nonce": "0x32e",
        "chainId": "0x2105"
      },
      "additionalContracts": [],
      "isFixedGasLimit": false
    }
  ],
  "receipts": [
    {
      "status": "0x1",
      "cumulativeGasUsed": "0x2a68cb3",
      "logs": [
        {
          "address": "0x6a8ac3a120e47101f7a794ca7445fff022d21f10",
          "topics": [
            "0x238399d427b947898edb290f5ff0f9109849b1c3ba196a42e35f00c50a54b98b"
          ],
          "data": "0x000000000000000000000000000000000000000000000000000000000000759e000000000000000000000000cf17b4834223d7e54b92f8e43229c1e82faf7226",
          "blockHash": "0x0a61e8f7aba3d00957bae0487eaf914cbb22ec65a50b4b3df02b7a1f905e1d59",
          "blockNumber": "0x20882af",
          "transactionHash": "0xd969cda41fabf9d532c9798d7f652c94fd00982bb0a194e081683a2bcaeccad0",
          "transactionIndex": "0x67",
          "logIndex": "0x305",
          "removed": false
        }
      ],
      "logsBloom": "0x00000000000000000000000000000000000000000000000000000000000000000000000000000000000000000000000000000000000000000800000000000000000000000000000000000000000000000000000000000020000000000000000000000000000000000000000000040000000000000000000000000000000000000000000000000000000000000000000000000000000000000000000000000000000000000000000000000000000000000000000000000000000002010000000000000000000000000000000000000000000000000000000000040000000000000000000000000000000000000000000000000000000000000000000000000000",
      "type": "0x2",
      "transactionHash": "0xd969cda41fabf9d532c9798d7f652c94fd00982bb0a194e081683a2bcaeccad0",
      "transactionIndex": "0x67",
      "blockHash": "0x0a61e8f7aba3d00957bae0487eaf914cbb22ec65a50b4b3df02b7a1f905e1d59",
      "blockNumber": "0x20882af",
      "gasUsed": "0xba28",
      "effectiveGasPrice": "0xa92518",
      "from": "0xdb5af497a73620d881561edb508012a5f84e9ba2",
      "to": "0x6a8ac3a120e47101f7a794ca7445fff022d21f10",
      "contractAddress": null,
      "l1BaseFeeScalar": "0x8dd",
      "l1BlobBaseFee": "0x1",
      "l1BlobBaseFeeScalar": "0x101c12",
      "l1Fee": "0x2ac504178",
      "l1GasPrice": "0xbc7ececa",
      "l1GasUsed": "0x640"
    },
    {
      "status": "0x1",
      "cumulativeGasUsed": "0x2a748c2",
      "logs": [
        {
          "address": "0x6a8ac3a120e47101f7a794ca7445fff022d21f10",
          "topics": [
            "0x667c4919e9f81a90720a09575224afc1e5c12c569c86afa746138907a029cd0d"
          ],
          "data": "0x000000000000000000000000000000000000000000000000000000000000759e000000000000000000000000cf17b4834223d7e54b92f8e43229c1e82faf7226",
          "blockHash": "0x0a61e8f7aba3d00957bae0487eaf914cbb22ec65a50b4b3df02b7a1f905e1d59",
          "blockNumber": "0x20882af",
          "transactionHash": "0xe5cfa596577c16faddc6c3ecd68a1fa01ae6005b64f5da4449fc67f303be0657",
          "transactionIndex": "0x68",
          "logIndex": "0x306",
          "removed": false
        }
      ],
      "logsBloom": "0x00000000000000000000000000000000000000000000000000000000000000000000000000000000000000000000000000000000000000000000000000000000000000000000000000000000000000000000000000000020000000000000000000000000000000000000000000040000000000000000000000000000000000000000000000000000000000000000000000000000000000000000000000000000000000000000000000000000000000000000000000000000000000010000000000000000000000000000000000000004000000000000000000000000000000000000000010000000000000000000000000000000000000000000004000000000",
      "type": "0x2",
      "transactionHash": "0xe5cfa596577c16faddc6c3ecd68a1fa01ae6005b64f5da4449fc67f303be0657",
      "transactionIndex": "0x68",
      "blockHash": "0x0a61e8f7aba3d00957bae0487eaf914cbb22ec65a50b4b3df02b7a1f905e1d59",
      "blockNumber": "0x20882af",
      "gasUsed": "0xbc0f",
      "effectiveGasPrice": "0xa92518",
      "from": "0xdb5af497a73620d881561edb508012a5f84e9ba2",
      "to": "0x6a8ac3a120e47101f7a794ca7445fff022d21f10",
      "contractAddress": null,
      "l1BaseFeeScalar": "0x8dd",
      "l1BlobBaseFee": "0x1",
      "l1BlobBaseFeeScalar": "0x101c12",
      "l1Fee": "0x2ac504178",
      "l1GasPrice": "0xbc7ececa",
      "l1GasUsed": "0x640"
    },
    {
      "status": "0x1",
      "cumulativeGasUsed": "0x2a80161",
      "logs": [
        {
          "address": "0x6a8ac3a120e47101f7a794ca7445fff022d21f10",
          "topics": [
            "0x48e5f5a5d80ef5b7285da75d7be3035affd0e1576397fcc0c132f25078b18385",
            "0x0000000000000000000000002abf1bd76655de80edb3086114315eec75af500c"
          ],
          "data": "0x",
          "blockHash": "0x0a61e8f7aba3d00957bae0487eaf914cbb22ec65a50b4b3df02b7a1f905e1d59",
          "blockNumber": "0x20882af",
          "transactionHash": "0x81178e9a992acf5f8e8dd857b663a5ea3d921cd6fb2309fc5b2ebfc4f14fbcdd",
          "transactionIndex": "0x69",
          "logIndex": "0x307",
          "removed": false
        }
      ],
      "logsBloom": "0x00000000000000000000000000000000000000000000000000000000000000000000000000000000008000000000000000000000000000000000000000000000000000000000000000000000000000000000000000000020000000000100000000000000000000000000000000040000000000000000000000000000000000000000200000000000000000000000000000000000000000000000000000000000000000000000000000000000000000004000000000000200000000010000000000000000000000000000000000000000000000000000000000000000000000000000000000000000000000000000000000000000004000000000000000000000",
      "type": "0x2",
      "transactionHash": "0x81178e9a992acf5f8e8dd857b663a5ea3d921cd6fb2309fc5b2ebfc4f14fbcdd",
      "transactionIndex": "0x69",
      "blockHash": "0x0a61e8f7aba3d00957bae0487eaf914cbb22ec65a50b4b3df02b7a1f905e1d59",
      "blockNumber": "0x20882af",
      "gasUsed": "0xb89f",
      "effectiveGasPrice": "0xa92518",
      "from": "0xdb5af497a73620d881561edb508012a5f84e9ba2",
      "to": "0x6a8ac3a120e47101f7a794ca7445fff022d21f10",
      "contractAddress": null,
      "l1BaseFeeScalar": "0x8dd",
      "l1BlobBaseFee": "0x1",
      "l1BlobBaseFeeScalar": "0x101c12",
      "l1Fee": "0x2ac504178",
      "l1GasPrice": "0xbc7ececa",
      "l1GasUsed": "0x640"
    },
    {
      "status": "0x1",
      "cumulativeGasUsed": "0x2a8b8da",
      "logs": [
        {
          "address": "0x6a8ac3a120e47101f7a794ca7445fff022d21f10",
          "topics": [
            "0x68c77771c713eb95ad51d8439730c7476d2957e71c0868ad8c567354a37ec122"
          ],
          "data": "0x00000000000000000000000000000000000000000000000000000000000f4240",
          "blockHash": "0x0a61e8f7aba3d00957bae0487eaf914cbb22ec65a50b4b3df02b7a1f905e1d59",
          "blockNumber": "0x20882af",
          "transactionHash": "0x348ccd6a0b04946df610554924785ee81eb926895c7d2e52871df44f6b947c3e",
          "transactionIndex": "0x6a",
          "logIndex": "0x308",
          "removed": false
        }
      ],
      "logsBloom": "0x00000000008000000000000200000000000000000000000000000000000000000000000000000000000000000000000000000000000000000000000000000000000000000000000000000000000000000000000000000020000000000000000000000000000000000000000000040000000000000000000000000000000000000000000000000000000000000000000000000000000000000000000000000000000000000000000000000000000000000000000000000000000000010000000000000000000000000000000000000000000000000000000000000001000000000000000000000000000000000000000000000000000000000000000000000000",
      "type": "0x2",
      "transactionHash": "0x348ccd6a0b04946df610554924785ee81eb926895c7d2e52871df44f6b947c3e",
      "transactionIndex": "0x6a",
      "blockHash": "0x0a61e8f7aba3d00957bae0487eaf914cbb22ec65a50b4b3df02b7a1f905e1d59",
      "blockNumber": "0x20882af",
      "gasUsed": "0xb779",
      "effectiveGasPrice": "0xa92518",
      "from": "0xdb5af497a73620d881561edb508012a5f84e9ba2",
      "to": "0x6a8ac3a120e47101f7a794ca7445fff022d21f10",
      "contractAddress": null,
      "l1BaseFeeScalar": "0x8dd",
      "l1BlobBaseFee": "0x1",
      "l1BlobBaseFeeScalar": "0x101c12",
      "l1Fee": "0x2ac504178",
      "l1GasPrice": "0xbc7ececa",
      "l1GasUsed": "0x640"
    },
    {
      "status": "0x1",
      "cumulativeGasUsed": "0x2a942d8",
      "logs": [
        {
          "address": "0x6a8ac3a120e47101f7a794ca7445fff022d21f10",
          "topics": [
            "0x98a5dcfe5d371f4a9a0e6d72aa7025644bfcbd134ffca8f85ae421c83f152f04"
          ],
          "data": "0x000000000000000000000000000000000000000000000000002386f26fc100000000000000000000000000000000000000000000000000000011c37937e08000",
          "blockHash": "0x0a61e8f7aba3d00957bae0487eaf914cbb22ec65a50b4b3df02b7a1f905e1d59",
          "blockNumber": "0x20882af",
          "transactionHash": "0x4a1ab80dc61d39866433ab9588056cc576790ea76a03c8b05c3acc9be1d25428",
          "transactionIndex": "0x6b",
          "logIndex": "0x309",
          "removed": false
        }
      ],
      "logsBloom": "0x00000000000000000000000000000000000000000000000000000020000000000000000000000000000000000000000000000000000000000000000000000000000000000000000000000000000000000000000000000020000000000000000000000000000000000000000000040000000000000000000000000000000000000008000020000000000000000000000000000000000000000000000000000000000000000000000000000000000000000000000000000000000000010000000000000000000000000000000000000000000000000000000000000000000000000000000000000000000000000000000000000000000000000000000000000000",
      "type": "0x2",
      "transactionHash": "0x4a1ab80dc61d39866433ab9588056cc576790ea76a03c8b05c3acc9be1d25428",
      "transactionIndex": "0x6b",
      "blockHash": "0x0a61e8f7aba3d00957bae0487eaf914cbb22ec65a50b4b3df02b7a1f905e1d59",
      "blockNumber": "0x20882af",
      "gasUsed": "0x89fe",
      "effectiveGasPrice": "0xa92518",
      "from": "0xdb5af497a73620d881561edb508012a5f84e9ba2",
      "to": "0x6a8ac3a120e47101f7a794ca7445fff022d21f10",
      "contractAddress": null,
      "l1BaseFeeScalar": "0x8dd",
      "l1BlobBaseFee": "0x1",
      "l1BlobBaseFeeScalar": "0x101c12",
      "l1Fee": "0x2ac504178",
      "l1GasPrice": "0xbc7ececa",
      "l1GasUsed": "0x640"
    }
  ],
  "libraries": [],
  "pending": [],
  "returns": {},
  "timestamp": 1755013699,
  "chain": 8453,
  "commit": "376e5c8a"
}